{
  "_format": "hh-sol-artifact-1",
  "contractName": "WavePortal",
  "sourceName": "contracts/WavePortal.sol",
  "abi": [
    {
      "inputs": [],
      "stateMutability": "payable",
      "type": "constructor"
    },
    {
      "anonymous": false,
      "inputs": [
        {
          "indexed": true,
          "internalType": "address",
          "name": "from",
          "type": "address"
        },
        {
          "indexed": false,
          "internalType": "uint256",
          "name": "timestamp",
          "type": "uint256"
        },
        {
          "indexed": false,
          "internalType": "string",
          "name": "message",
          "type": "string"
        }
      ],
      "name": "NewWave",
      "type": "event"
    },
    {
      "inputs": [],
      "name": "getAllWaves",
      "outputs": [
        {
          "components": [
            {
              "internalType": "address",
              "name": "waver",
              "type": "address"
            },
            {
              "internalType": "string",
              "name": "message",
              "type": "string"
            },
            {
              "internalType": "uint256",
              "name": "timestamp",
              "type": "uint256"
            }
          ],
          "internalType": "struct WavePortal.Wave[]",
          "name": "",
          "type": "tuple[]"
        }
      ],
      "stateMutability": "view",
      "type": "function"
    },
    {
      "inputs": [],
      "name": "totalWaves",
      "outputs": [
        {
          "internalType": "uint256",
          "name": "",
          "type": "uint256"
        }
      ],
      "stateMutability": "view",
      "type": "function"
    },
    {
      "inputs": [
        {
          "internalType": "string",
          "name": "_message",
          "type": "string"
        }
      ],
      "name": "wave",
      "outputs": [],
      "stateMutability": "nonpayable",
      "type": "function"
    },
    {
      "inputs": [
        {
          "internalType": "uint256",
          "name": "",
          "type": "uint256"
        }
      ],
      "name": "waves",
      "outputs": [
        {
          "internalType": "address",
          "name": "waver",
          "type": "address"
        },
        {
          "internalType": "string",
          "name": "message",
          "type": "string"
        },
        {
          "internalType": "uint256",
          "name": "timestamp",
          "type": "uint256"
        }
      ],
      "stateMutability": "view",
      "type": "function"
    }
  ],
  "bytecode": "0x60806040526064444262000014919062000065565b620000209190620000cf565b60018190555062000107565b6000819050919050565b7f4e487b7100000000000000000000000000000000000000000000000000000000600052601160045260246000fd5b600062000072826200002c565b91506200007f836200002c565b92508282019050808211156200009a576200009962000036565b5b92915050565b7f4e487b7100000000000000000000000000000000000000000000000000000000600052601260045260246000fd5b6000620000dc826200002c565b9150620000e9836200002c565b925082620000fc57620000fb620000a0565b5b828206905092915050565b610fb380620001176000396000f3fe608060405234801561001057600080fd5b506004361061004c5760003560e01c8063291bcab314610051578063449d46c01461006f578063bd43a9081461008b578063c781267a146100a9575b600080fd5b6100596100db565b6040516100669190610591565b60405180910390f35b61008960048036038101906100849190610706565b6100e1565b005b610093610345565b6040516100a09190610930565b60405180910390f35b6100c360048036038101906100be919061097e565b610496565b6040516100d293929190610a04565b60405180910390f35b60005481565b60016000808282546100f39190610a71565b92505081905550600260405180606001604052803373ffffffffffffffffffffffffffffffffffffffff16815260200183815260200142815250908060018154018082558091505060019003906000526020600020906003020160009091909190915060008201518160000160006101000a81548173ffffffffffffffffffffffffffffffffffffffff021916908373ffffffffffffffffffffffffffffffffffffffff16021790555060208201518160010190816101b29190610cb1565b50604082015181600201555050606460015442446101d09190610a71565b6101da9190610a71565b6101e49190610db2565b600181905550603260015410156102f2576000655af3107a4000905047811115610243576040517f08c379a000000000000000000000000000000000000000000000000000000000815260040161023a90610e55565b60405180910390fd5b60003373ffffffffffffffffffffffffffffffffffffffff168260405161026990610ea6565b60006040518083038185875af1925050503d80600081146102a6576040519150601f19603f3d011682016040523d82523d6000602084013e6102ab565b606091505b50509050806102ef576040517f08c379a00000000000000000000000000000000000000000000000000000000081526004016102e690610f2d565b60405180910390fd5b50505b3373ffffffffffffffffffffffffffffffffffffffff167f5f7e16dc676677766a70e9c5628aa6c54ddb8b6e5188e2ae1e1f17f1ffbea716428360405161033a929190610f4d565b60405180910390a250565b60606002805480602002602001604051908101604052809291908181526020016000905b8282101561048d57838290600052602060002090600302016040518060600160405290816000820160009054906101000a900473ffffffffffffffffffffffffffffffffffffffff1673ffffffffffffffffffffffffffffffffffffffff1673ffffffffffffffffffffffffffffffffffffffff1681526020016001820180546103f290610ad4565b80601f016020809104026020016040519081016040528092919081815260200182805461041e90610ad4565b801561046b5780601f106104405761010080835404028352916020019161046b565b820191906000526020600020905b81548152906001019060200180831161044e57829003601f168201915b5050505050815260200160028201548152505081526020019060010190610369565b50505050905090565b600281815481106104a657600080fd5b90600052602060002090600302016000915090508060000160009054906101000a900473ffffffffffffffffffffffffffffffffffffffff16908060010180546104ef90610ad4565b80601f016020809104026020016040519081016040528092919081815260200182805461051b90610ad4565b80156105685780601f1061053d57610100808354040283529160200191610568565b820191906000526020600020905b81548152906001019060200180831161054b57829003601f168201915b5050505050908060020154905083565b6000819050919050565b61058b81610578565b82525050565b60006020820190506105a66000830184610582565b92915050565b6000604051905090565b600080fd5b600080fd5b600080fd5b600080fd5b6000601f19601f8301169050919050565b7f4e487b7100000000000000000000000000000000000000000000000000000000600052604160045260246000fd5b610613826105ca565b810181811067ffffffffffffffff82111715610632576106316105db565b5b80604052505050565b60006106456105ac565b9050610651828261060a565b919050565b600067ffffffffffffffff821115610671576106706105db565b5b61067a826105ca565b9050602081019050919050565b82818337600083830152505050565b60006106a96106a484610656565b61063b565b9050828152602081018484840111156106c5576106c46105c5565b5b6106d0848285610687565b509392505050565b600082601f8301126106ed576106ec6105c0565b5b81356106fd848260208601610696565b91505092915050565b60006020828403121561071c5761071b6105b6565b5b600082013567ffffffffffffffff81111561073a576107396105bb565b5b610746848285016106d8565b91505092915050565b600081519050919050565b600082825260208201905092915050565b6000819050602082019050919050565b600073ffffffffffffffffffffffffffffffffffffffff82169050919050565b60006107a68261077b565b9050919050565b6107b68161079b565b82525050565b600081519050919050565b600082825260208201905092915050565b60005b838110156107f65780820151818401526020810190506107db565b60008484015250505050565b600061080d826107bc565b61081781856107c7565b93506108278185602086016107d8565b610830816105ca565b840191505092915050565b61084481610578565b82525050565b600060608301600083015161086260008601826107ad565b506020830151848203602086015261087a8282610802565b915050604083015161088f604086018261083b565b508091505092915050565b60006108a6838361084a565b905092915050565b6000602082019050919050565b60006108c68261074f565b6108d0818561075a565b9350836020820285016108e28561076b565b8060005b8581101561091e57848403895281516108ff858261089a565b945061090a836108ae565b925060208a019950506001810190506108e6565b50829750879550505050505092915050565b6000602082019050818103600083015261094a81846108bb565b905092915050565b61095b81610578565b811461096657600080fd5b50565b60008135905061097881610952565b92915050565b600060208284031215610994576109936105b6565b5b60006109a284828501610969565b91505092915050565b6109b48161079b565b82525050565b600082825260208201905092915050565b60006109d6826107bc565b6109e081856109ba565b93506109f08185602086016107d8565b6109f9816105ca565b840191505092915050565b6000606082019050610a1960008301866109ab565b8181036020830152610a2b81856109cb565b9050610a3a6040830184610582565b949350505050565b7f4e487b7100000000000000000000000000000000000000000000000000000000600052601160045260246000fd5b6000610a7c82610578565b9150610a8783610578565b9250828201905080821115610a9f57610a9e610a42565b5b92915050565b7f4e487b7100000000000000000000000000000000000000000000000000000000600052602260045260246000fd5b60006002820490506001821680610aec57607f821691505b602082108103610aff57610afe610aa5565b5b50919050565b60008190508160005260206000209050919050565b60006020601f8301049050919050565b600082821b905092915050565b600060088302610b677fffffffffffffffffffffffffffffffffffffffffffffffffffffffffffffffff82610b2a565b610b718683610b2a565b95508019841693508086168417925050509392505050565b6000819050919050565b6000610bae610ba9610ba484610578565b610b89565b610578565b9050919050565b6000819050919050565b610bc883610b93565b610bdc610bd482610bb5565b848454610b37565b825550505050565b600090565b610bf1610be4565b610bfc818484610bbf565b505050565b5b81811015610c2057610c15600082610be9565b600181019050610c02565b5050565b601f821115610c6557610c3681610b05565b610c3f84610b1a565b81016020851015610c4e578190505b610c62610c5a85610b1a565b830182610c01565b50505b505050565b600082821c905092915050565b6000610c8860001984600802610c6a565b1980831691505092915050565b6000610ca18383610c77565b9150826002028217905092915050565b610cba826107bc565b67ffffffffffffffff811115610cd357610cd26105db565b5b610cdd8254610ad4565b610ce8828285610c24565b600060209050601f831160018114610d1b5760008415610d09578287015190505b610d138582610c95565b865550610d7b565b601f198416610d2986610b05565b60005b82811015610d5157848901518255600182019150602085019450602081019050610d2c565b86831015610d6e5784890151610d6a601f891682610c77565b8355505b6001600288020188555050505b505050505050565b7f4e487b7100000000000000000000000000000000000000000000000000000000600052601260045260246000fd5b6000610dbd82610578565b9150610dc883610578565b925082610dd857610dd7610d83565b5b828206905092915050565b7f547279696e6720746f207769746864726177206d6f7265206d6f6e657920746860008201527f616e2074686520636f6e7472616374206861732e000000000000000000000000602082015250565b6000610e3f6034836109ba565b9150610e4a82610de3565b604082019050919050565b60006020820190508181036000830152610e6e81610e32565b9050919050565b600081905092915050565b50565b6000610e90600083610e75565b9150610e9b82610e80565b600082019050919050565b6000610eb182610e83565b9150819050919050565b7f4661696c656420746f207769746864726177206d6f6e65792066726f6d20636f60008201527f6e74726163742e00000000000000000000000000000000000000000000000000602082015250565b6000610f176027836109ba565b9150610f2282610ebb565b604082019050919050565b60006020820190508181036000830152610f4681610f0a565b9050919050565b6000604082019050610f626000830185610582565b8181036020830152610f7481846109cb565b9050939250505056fea26469706673582212201c0a82c948e2c124ec7d73b49a0c5141013c71a73f80d86e2a3eb453bba1a4fe64736f6c63430008110033",
  "linkReferences": {},
  "deployedLinkReferences": {}
}